:020000040800F2
:1000000000070020F1020008CDB3000885B3000806
:10001000ADB3000885B30008A5B30008F3020008DB
:10002000F3020008F3020008F3020008C9DB00082D
:10003000F3020008F3020008F3020008F3020008CC
:10004000F3020008F3020008F3020008F3020008BC
:10005000F3020008F3020008851D0108B11D010824
:10006000DD1D0108091E0108351E010841E10008D7
:1000700069E1000895E10008C1E10008EDE1000830
:1000800015E2000841E20008F302000839B2000856
:1000900061B200084DB2000875B20008611E010887
:1000A000F3020008F3020008F3020008F30200085C
:1000B000F3020008F3020008F3020008F30200084C
:1000C000F3020008F3020008F3020008F30200083C
:1000D000F3020008F3020008F3020008F30200082C
:1000E000C51E0108F3020008F3020008F30200082D
:1000F000F3020008F3020008F30200086DE20008B2
:10010000F3020008F3020008391F0108F302000897
:10011000F3020008F3020008F3020008F3020008EB
:1001200099E20008C1E20008EDE2000819E30008C6
:1001300045E3000821E60008F3020008F302000886
:10014000F3020008F3020008F3020008F3020008BB
:100150006DE3000899E30008C5E30008F302000816
:10016000F3020008F3020008F3020008F30200089B
:10017000F3020008D5110108F3020008F302000899
:10018000F3020008F3020008F3020008F30200087B
:10019000F3020008F3020008F3020008F30200086B
:1001A000F3020008F3020008F3020008F30200085B
:1001B000F3020008F3020008F3020008F30200084B
:1001C000F3020008F3020008F3020008F30200083B
:1001D000F3020008C1110108F3020008F30200084D
:1001E000F3020008F3020008F3020008F30200081B
:1001F000F3020008F3020008F3020008F30200080B
:10020000F3020008F3020008F3020008F3020008FA
:10021000F3020008F3020008F3020008F3020008EA
:10022000F3020008F3020008F3020008F3020008DA
:10023000F3020008F3020008F3020008F3020008CA
:10024000F3020008F3020008F3020008F3020008BA
:10025000F3020008F3020008F3020008F3020008AA
:10026000F3020008F3020008F3020008F30200089A
:10027000F3020008F3020008F3020008F30200088A
:10028000F3020008F3020008F3020008F30200087A
:10029000F3020008F3020008F3020008F30200086A
:1002A000F3020008F3020008F3020008F30200085A
:1002B000F3020008F3020008F3020008F30200084A
:1002C000F3020008F3020008F3020008F30200083A
:1002D000F3020008F3020008F3020008F30200082A
:1002E000A1050008BD18000881A100080000000059
:1002F00002E000F000F8FEE772B6374880F30888A5
:10030000364880F3098836483649086040F20000D4
:10031000CCF200004EF63471CEF200010860BFF35B
:100320004F8FBFF36F8F40F20000C0F2F0004EF627
:100330008851CEF200010860BFF34F8FBFF36F8F7B
:100340004FF00000E1EE100A4EF63C71CEF20001D3
:100350000860062080F31488BFF36F8F10F0B0F9A7
:1003600011F0E0FA4FF055301F491B4A91423CBF53
:1003700041F8040BFAE71D49184A91423CBF41F885
:10038000040BFAE71A491B4A1B4B9A423EBF51F82D
:10039000040B42F8040BF8E700201849184A914270
:1003A0003CBF41F8040BFAE710F0C8F911F03CFB30
:1003B000144C154DAC4203DA54F8041B8847F9E796
:1003C00000F094F8114C124DAC4203DA54F8041BBF
:1003D0008847F9E710F0B0B900070020002300209B
:1003E0000000000808ED00E00001002000070020E8
:1003F0009063010800230020E4230020E82300206C
:100400004C8D0020E0020008EC020008EC0200081D
:10041000EC0200082DE9F04F2DED108AC1F80CD048
:10042000D0F80CD0BDEC108ABDE8F08F002383F328
:1004300011882846A04700200FF020FBFEE70FF0B0
:10044000E9F900DFFEE7000001F0FF01102A2BDBD5
:1004500010F0070F08D010F8013B013A8B422DD065
:1004600010F0070F42B3F6D1F0B441EA012141EA9E
:10047000014122F007047FF000070023F0E8025654
:10048000083C85EA010586EA010685FA47F5A3FAE4
:1004900087F586FA47F6A5FA87F68EB9EED1F0BC55
:1004A00001F0FF0102F0070232B110F8013B013AFE
:1004B00083EA010313B1F8D1002070470138704777
:1004C000002D06BF35460338073815F0010F07D158
:1004D000013015F4807F02BF013015F4C03F0130B8
:1004E000F0BC0138704700BF70470000F8B501F05C
:1004F00053FE01F0F7FF264801F04EFC10F064F8BF
:10050000074610F0D3F80546C0BB224B9F4235D0BA
:1005100001339F4235D027F0FF021F4B9A4233D15F
:100520002E4642F21074F8B200F0D2FF00F0D6FF6F
:1005300008B10024264602F0A9FA20B100240320C5
:1005400000F096F8264635B1144B9F4203D00024A4
:1005500010F0A4F82646002010F040F80EB100F08C
:100560009DF801F093FF00F0EDFF094801F0EEFB6C
:10057000204600F045F900F091F8F9E72E460024F6
:10058000D4E704460126D1E7064641F28834CDE798
:10059000E8230020010007B0000008B0263A09B0A7
:1005A00010B5084C04F108000AF0D2FE04F1340042
:1005B0000AF0CEFE2046044A0449BDE8104011F07E
:1005C00009BD00BFE8230020906B0020E90400086B
:1005D00008B501F0B3FDA0F120035842584108BD11
:1005E00007B541F21203022101A8ADF8043001F071
:1005F000C3FD03B05DF804FB38B5302383F31188E5
:10060000174803680BB10FF005FB0023154A4FF4A0
:100610007A7113480FF0F4FA002383F31188124C17
:10062000236813B12368013B2360636813B16368D7
:10063000013B63600D4D2B7833B963687BB90220B1
:1006400001F07AFE322363602B78032B07D16368B5
:100650002BB9022001F070FE4FF47A73636038BD4D
:1006600034250020F9050008542600204C250020E0
:10067000084B187003280CD8DFE800F008050208C2
:10068000022001F049BE022001F036BE024B0022DA
:100690005A6070474C25002054260020F8B502F01F
:1006A000F5F930B14D4B03221A7000224C4B5A60C1
:1006B000F8BD4C4B4C4A1C4619680131F8D0043344
:1006C0009342F9D16268494B9A42F1D9484B9B68F1
:1006D00003F1006303F500339A42E9D20FF0B2FF51
:1006E0000FF0C4FF002001F07DFD0220FFF7C0FFE6
:1006F000404B00219A6C99641A6F19671A6FDA6C73
:10070000D9645A6F59675A6F1A6D19659A6F99674C
:100710009B6F394BD3F8802042F00062C3F88020F1
:10072000D3F8802022F00062C3F88020D3F8802024
:10073000D3F8802042F00072C3F88020D3F88020E4
:1007400022F00072C3F88020D3F8803072B64FF0E8
:10075000E023C3F8084DD4E90004BFF34F8FBFF383
:100760006F8F264AC2F88410BFF34F8F536923F46A
:1007700080335361BFF34F8FD2F8803043F6E07679
:10078000C3F3C905C3F34E335B0103EA060C2946E4
:100790004CEA81770139C2F87472F9D2203B13F127
:1007A000200FF2D1BFF34F8FBFF36F8FBFF34F8F87
:1007B000BFF36F8F536923F4003353610023C2F8F2
:1007C0005032BFF34F8FBFF36F8F302383F3118805
:1007D000854680F3088820476AE700BF4C25002043
:1007E000542600200000020820000208FFFF010834
:1007F00000230020004502580044025800ED00E0AC
:100800002DE9F04F93B0B74B2022FF2100900AA8AA
:100810009D6801F0E5FDB44A1378A3B90121B348FE
:1008200011700360302383F3118803680BB10FF05C
:10083000F1F90023AE4A4FF47A71AC480FF0E0F9B9
:10084000002383F31188009B13B1AA4B009A1A600E
:10085000A94A1378032B03D000231370A54A5360D1
:100860004FF0000A009CD3465646D146012001F0C5
:1008700053FD24B19F4B1B68002B00F02C820020FD
:1008800001F05CFC0390039B002B01DA00F0AEFE4C
:10089000039B002BEDDB012001F02EFD039B213B90
:1008A0001F2BE3D801A252F823F000BF2D09000846
:1008B00055090008E90900086D0800086D080008DE
:1008C0006D0800087B0A00084B0C0008650B000847
:1008D000C70B0008EF0B0008150C00086D08000896
:1008E000270C00086D080008990C0008CD090008C5
:1008F0006D080008DD0C000839090008CD09000862
:100900006D080008C70B00086D0800086D08000896
:100910006D0800086D0800086D0800086D080008E3
:100920006D0800086D080008E90900080220FFF7BB
:100930004FFE002840F0F981009B022105A8BAF182
:10094000000F08BF1C4641F21233ADF8143001F01D
:1009500013FC8BE74FF47A7001F0F0FB071EEBDB22
:100960000220FFF735FE0028E6D0013F052F00F2F8
:10097000DE81DFE807F0030A0D101336052304219A
:1009800005A8059301F0F8FB17E004215548F9E7A5
:1009900004215A48F6E704215948F3E74FF01C08B0
:1009A000404608F1040801F01FFC0421059005A849
:1009B00001F0E2FBB8F12C0FF2D101204FF0000959
:1009C00000FA07F747EA0B0B5FFA8BFB01F054FDC7
:1009D00026B10BF00B030B2B08BF0024FFF700FE22
:1009E00044E704214748CDE7002EA5D00BF00B03C8
:1009F0000B2BA1D10220FFF7EBFD074600289BD06F
:100A00000120002601F0EEFB0220FFF731FE1FFA65
:100A100086F8404601F0F6FB0446B0B10399404623
:100A20000136A1F140025142514101F003FC00287E
:100A3000EDD1BA46044641F21213022105A83E4602
:100A4000ADF8143001F098FB10E725460120FFF7C0
:100A50000FFE244B9B68AB4207D9284601F0C4FB2C
:100A6000013040F067810435F3E70025224BBA4698
:100A70003E461D701F4B5D60A8E7002E3FF45CAF43
:100A80000BF00B030B2B7FF457AF0220FFF7F0FDA9
:100A9000322001F053FBB0F10008FFF64DAF18F023
:100AA00003077FF449AF0F4A08EB050392689342AE
:100AB0003FF642AFB8F5807F3FF73EAF124BB845E7
:100AC000019323DD4FF47A7001F038FB0390039A11
:100AD000002AFFF631AF039A0137019B03F8012B7F
:100AE000EDE700BF00230020502600203425002021
:100AF000F9050008542600204C250020042300207E
:100B0000082300200C23002050250020C820FFF7D8
:100B10005FFD074600283FF40FAF1F2D11D8C5F128
:100B200020020AAB25F0030084494245184428BF3F
:100B30004246019201F022FC019AFF217F4801F018
:100B40004FFC4FEAA803C8F387027C49284601936B
:100B500001F04EFC064600283FF46DAF019B05EB0B
:100B6000830533E70220FFF733FD00283FF4E4AEAE
:100B700001F072FB00283FF4DFAE0027B846704B4F
:100B80009B68BB4218D91F2F11D80A9B01330ED086
:100B900027F0030312AA134453F8203C0593404660
:100BA000042205A9043701F05BFF8046E7E73846D9
:100BB00001F01AFB0590F2E7CDF81480042105A896
:100BC00001F0DAFA02E70023642104A8049301F09B
:100BD000C9FA00287FF4B0AE0220FFF7F9FC002824
:100BE0003FF4AAAE049801F02DFB0590E6E7002340
:100BF000642104A8049301F0B5FA00287FF49CAEA8
:100C00000220FFF7E5FC00283FF496AE049801F0BF
:100C10001BFBEAE70220FFF7DBFC00283FF48CAE69
:100C200001F02AFBE1E70220FFF7D2FC00283FF4A5
:100C300083AE05A9142001F025FB0746042104908A
:100C400004A801F099FA3946B9E7322001F076FAA2
:100C5000071EFFF671AEBB077FF46EAE384A07EB96
:100C60000903926893423FF667AE0220FFF7B0FC9B
:100C700000283FF461AE27F003074F44B9453FF425
:100C8000A5AE484609F1040901F0AEFA0421059029
:100C900005A801F071FAF1E74FF47A70FFF798FCBC
:100CA00000283FF449AE01F0D7FA002844D00A9B4F
:100CB00001330BD008220AA9002001F099FB00287B
:100CC0003AD02022FF210AA801F08AFBFFF788FC16
:100CD0001C480EF0D9FE13B0BDE8F08F002E3FF493
:100CE0002BAE0BF00B030B2B7FF426AE00236421FD
:100CF00005A8059301F036FA074600287FF41CAEDC
:100D00000220FFF765FC804600283FF415AEFFF790
:100D100067FC41F288300EF0B7FE059801F0E0FB69
:100D200046463C4601F0A8FBA0E506464EE64FF0DD
:100D3000000901E6BA467EE637467CE650250020EB
:100D400000230020A0860100094A49F269001368C7
:100D500099B21B0C00FB013344F250611360054B48
:100D6000186882B2000C01FB0200186080B2704764
:100D700014230020102300207047000000211022BF
:100D800010B5044601F02CFB034B03CB20606160DF
:100D90001868A06010BD00BF00E8F11F2DE9F04108
:100DA000ADF54C7D0D46002140F275126AAC074648
:100DB0000CA80B9101F014FB4FF4C47200212046E3
:100DC00001F00EFB0DF12C080AF00EFB4FF47A72C5
:100DD000264BB0FBF2F0186093E80700022384E88A
:100DE00007000DF5E5702382FFF7C8FF43F20553B6
:100DF0001F4907A8238411F0F1F90D230DF2DB221E
:100E00000DF1240C84F8323107AB1E46083203CEB4
:100E1000664542F8080C42F8041C3346F5D13068A8
:100E200041461060204633791371012201F0B0FB76
:100E3000002380B2E97E0393AB7E029305F1190390
:100E400001930123009307A3D3E90023CDE9048094
:100E500038460CF089FA0DF54C7DBDE8F08100BFF5
:100E6000AFF300809E6AC421818A46EE5C26002092
:100E7000043201082DE9F0412C4CDAB080460D46D1
:100E8000237A5BBB27A9284601F0F6FC0746002819
:100E900042D19DF89D60C82E3ED801464FF4A6620F
:100EA000204601F09DFA4FF4807332460DF19E0109
:100EB000C4F8F8314FF4007304F109002644C4F873
:100EC0000C334FF44073C4F8203401F057FA9DF806
:100ED0009C30777223720BB9EB7E237206AC8122B1
:100EE000002127A801F07CFA0122214627A801F061
:100EF00009FD002380B2E97E0393AB7E029305F1E6
:100F0000190301932823CDE904400093404605A32B
:100F1000D3E900230CF028FA5AB0BDE8F08100BFF5
:100F2000AFF3008026417272DF25D7B74060002002
:100F3000F0B5254E4FF48A75F1B0002405FB00652D
:100F400096F8D830D822214685F8DC303AA885F8C2
:100F5000E84006AF01F044FA06F1090001F038FA62
:100F6000D5F8E430C2B206F109018DF8F0000DF1B8
:100F7000F100CDE93A3401F001FA394601223AA8EC
:100F800001F0F6FC082380B2317ACDE90470012724
:100F90000E48CDE9023706F1D803019330230093C0
:100FA00007A3D3E900230CF0DFF9A04206DD0AF025
:100FB0001BFAC5F8E000384671B0F0BD2046FBE7EB
:100FC00078F6339F93CACD8D4060002074360020A0
:100FD0002DE9F04F264F87B0DFF8A080254E384628
:100FE0000CF0EEF9034600283AD00024224DADF86B
:100FF0001440A1460294A246CDE90344027B8DF839
:10100000142003AA9968406803C21B6843F0004398
:1010100002932B6804F5A664D3F810B00AF0E6F941
:1010200010EB0802CDF800A0284605F5A65541F1C1
:10103000000302A9D8470028C8BF49F00109B4F548
:10104000266FE6D1B9F1000F05D038460CF0BCF997
:1010500086F800A0C3E73378072B04D80133337038
:1010600007B0BDE8F08F02480CF0AEF9F8E700BF1A
:101070007436002079650020A836002040420F0019
:1010800070B50D4614461E460CF0CAF850B9022E33
:1010900010D1012C0ED112A3D3E900230120C5E900
:1010A000002307E0282C10D005D8012C09D0052CEE
:1010B0000FD0002070BD302CFBD10BA3D3E900234F
:1010C000ECE70BA3D3E90023E8E70BA3D3E9002364
:1010D000E4E70BA3D3E90023E0E700BFAFF3008010
:1010E000401DA12026812A0B78F6339F93CACD8D0F
:1010F0009E6AC421818A46EE26417272DF25D7B7E7
:10110000F017304A39059E5638B505460E4C002179
:10111000013501F08FF8A4F82C55B4F82C0501F036
:1011200071F878B1B4F82C0501F07CF8014648B9A3
:10113000B4F82C0501F07EF8B4F82C350133A4F88E
:101140002C35EAE738BD00BF40600020F0B589B01B
:1011500005460C4616460D4940F2872207A81F4651
:1011600001F012FDBDF83C302A46009604930E9B18
:10117000074803931823CDE9017323460CF096F832
:1011800007A801F00BFD09B0F0BD00BF28600020EA
:1011900074360020F8B50D4C02260D4FA4F580538F
:1011A00043F8307C237E3BB965692DB1284601F0B8
:1011B000FDFC284610F014FF2046A4F5A65401F0CB
:1011C000F5FC012E00D1F8BD0126E7E7985B002071
:1011D000DC5401082DE9F04F8FB005460C4600AFF6
:1011E0000CF01EF8002849D1237E022B1BD1E38A84
:1011F000012B18D10AF0F8F80646FFF7A5FD0346C3
:101200004FF4C87006F51676DFF8C082B3FBF0F233
:1012100002FB103316FA83F3C8F80030E37E33B9CB
:10122000A34B00221A703C37BD46BDE8F08F07F192
:101230002401204601F0D4FA0028F4D107F114006B
:10124000FFF79CFD97F8264007F1140107F12700EE
:10125000224610F001FF0028E2D10F2C08D8944B51
:101260001C70D8F80030A3F51673C8F80030DAE720
:1012700097F8241028460BF0CBFFD4E7E38A282BFD
:101280002BD010D8012B23D0052BCCD1BFF34F8FFF
:101290008849894BCA6802F4E0621343CB60BFF30C
:1012A0004F8F00BFFDE7302BBDD1844EE17E327AF7
:1012B0009142B8D1607E3146002291F8DC508542DF
:1012C00000F0A580013201F58A71042AF5D1AAE760
:1012D00021462846FFF762FDA5E721462846FFF78D
:1012E000C9FDA0E7B2F8EC507B6005F103094FEAB5
:1012F00099094FEA8902D11DC908A8EBC103002151
:101300009D46EB46584601F06BF804F1EE012A4683
:101310005846314401F032F87B6813B9012000F0DF
:1013200061FF96F8D20000F06DFF044630B93072CC
:1013300000F092FF204600F055FFB1E0D6F8D4202F
:101340003AB996F8D200B6F82C25824201D8FFF7B8
:10135000DBFED6F8D4202A44944208D296F8D20074
:10136000B6F82C250130824201D8FFF7CDFE5FFA96
:1013700089F25946706801F03BF808B9C54679E032
:10138000726896F8D2002A447260D6F8D42005EB31
:101390000209C6F8D49000F035FF814509D396F8CC
:1013A000D220D6F8D4000132001B86F8D220C6F82D
:1013B000D400FF2D0FD80024347200F04DFF2046DA
:1013C00000F010FF01F062FB3D4B188108B9FFF7F8
:1013D00065F9C54627E7BB6896F8D9000AFB0362A2
:1013E000FB68D2F8E41082F8E83001F58061C2F8B9
:1013F000E030C2F8E410FFF79BFDFFF7E9FD96F837
:10140000D920013202F0030286F8D920B6E74FF462
:101410008A7A20460AFB02F505F1EA01314401F01F
:10142000D9FAF86000287FF4FEAE0122354485F831
:10143000E82009F0D9FFD5F8E020D6ED007A801A2F
:1014400040F6B832B8EE677ADFED1E6A192838BF69
:101450001920904228BF104607EE900AF8EEE77A6E
:1014600067EEA67ADFED186AE7EE267AFCEEE77AF9
:10147000C6ED007A96F8D930BB60BA6873680AFB8B
:1014800002F4321992F8E81059B1D2F8E410E846A3
:101490008B423FF427AF002182F8E810C2F8E01039
:1014A000C5467368064A9B0A01331381BBE600BF39
:1014B0006D36002000ED00E00400FA0540600020D9
:1014C0005C260020CDCCCC3D6666663F70360020A1
:1014D000014B1870704700BF6826002038B54FF0E8
:1014E0000054144B22689A4221D1627D0025124B90
:1014F00012481A70C922237D0930114900F8013CB5
:101500004FF48073C0F8DB50C0F8EF314FF4007334
:10151000C0F803334FF44073C0F8173400F02EFFC7
:10152000E0222946204600F05BFF012038BD002064
:10153000FCE700BF9AAD44C568260020406000204B
:101540001600002037B501F0A1FA1F4C1F4D0223F1
:1015500001221F496B712368288120465B689847E8
:1015600004F5805301221A49D3F8C03404F5A6507B
:101570005B689847002317494FF480520193164B3C
:1015800016480093164B0BF01BFE164B197811B141
:1015900012480BF03DFE09F027FF0446FFF7D4FB8D
:1015A0004FF4C873B0FBF3F202FB130304F516709B
:1015B00010FA83F00C4B18600FF078F808B10F2385
:1015C0002B8103B030BD00BFA83600205C26002070
:1015D00040420F006C260020811000087436002065
:1015E000D511000868260020703600202DE9F04F44
:1015F00000242DED028B8FB00DF11C08DFF8309226
:10160000FFF7E6FC0694ADF824400794C8F80440C0
:101610009FED788B00267D4DDFF8F4B1374601232E
:101620000DF10D0203A928468DF80C302B688DF8BA
:101630000D408DED008BD3F808A00023D0479DF816
:101640000CA0BAF1000F24D0D9F8143010220021D8
:101650000AA883F48043C9F8143000F0C1FE2B6857
:1016600004AA06A95F6928460DF10E03B8470BAB23
:10167000574698E8030083E803009DF824300AA940
:1016800058468DF83430069B0A93DDE904230CF0AC
:1016900079F806F5A66605F5A655B6F5266FBED10E
:1016A000002FB7D15A480BF0BBFD00283AD1594E54
:1016B00009F09AFE3368984234D309F095FE054646
:1016C000FFF742FB4FF4C8738DF81870B0FBF3F2CC
:1016D00002FB130305F5167010FA83F030604E4ECE
:1016E000377817B901238DF81830C7F110050AA80B
:1016F000FFF744FB0AABEDB20DF11900D919062D25
:1017000028BF06252A46013500F038FE06ABEDB2AB
:10171000012200930195414B38A1D1E90001FFF767
:1017200015FD347009F060FE3D4A3E4D1368C31A42
:10173000B3F57A7F2AD3106009F058FE02460B46B3
:1017400033480BF04BFE32480BF06AFDF0B12B7AB8
:101750000AAF354E002B14BF03230223737109F027
:1017600043FE4FF47A7301223946B0FBF3F0306048
:10177000304600F0BBFF2D4B80B240F25512CDE950
:10178000007020A1D1E90001FFF7E0FC2B7A93B1B2
:1017900009F02AFE002607464FF48A7895F8D9000A
:1017A000304400F0030008FB005393F8E82072B1C6
:1017B0000136042EF2D1C8200EF066F92B7A002BE8
:1017C0007FF41AAF0FB0BDEC028BBDE8F08FD3F8F9
:1017D000E02042B12B68BA1AFA2B38BFFA2305333E
:1017E000B2EB430FE4D3FFF7A3FB0028E0D1E2E71D
:1017F000AFF300800000000000000000401DA120A9
:1018000026812A0BF1C6A7C1D068080FA836002090
:1018100074360020703600206D3600206C360020B3
:1018200074650020406000205C2600207865002060
:10183000000C02580FB430B5C3B07C22002146AC76
:1018400023A854F8045B00F0CBFD0021772205A803
:10185000049100F0C5FD23462A465A210DF1AE0041
:10186000039409F08DFD5A2804AC4FF0010228BF03
:101870005A2021468DF8AD0023A800F05FFF0B4BE6
:1018800080B243F6FF72CDE9004006A1D1E9000124
:10189000FFF75CFC43B0BDE8304004B0704700BFC8
:1018A000AFF30080759D040C8EA454D670650020A3
:1018B00010B5044610F094FB204610BD10B50C4C3A
:1018C000204608F0D1FF04F5A6500A4C08F0CCFFE2
:1018D000094A0020094910F07DFB204609F038FD37
:1018E0002046054A0649BDE8104010F073BB00BF12
:1018F000A836002028600020906B00209511000879
:10190000790D000870470000064A00230261064A6C
:101910000362426140F2DC528284044AC262184689
:10192000704700BF8D7D000855190008060A6D73C9
:101930001FB50368186801F067FC1022694601F0C2
:1019400075FB01460248FFF775FF05B05DF804FB23
:10195000143201081FB50C464CF2503201A90A4856
:101960000DF036F968B934B1628901A861680DF0EB
:10197000B3F82468F7E701A80DF004F8204604B096
:1019800010BD6FF00200FAE7346C002030B585B06E
:101990000D4600220E4801A90DF032F9A8B94FF406
:1019A000C172BDF8081001F007FF0446286034B189
:1019B000628901A861680DF0A5F82468F7E701A81D
:1019C0000DF030F8012005B030BD0020FBE700BF6E
:1019D000346C002000212DE9F04104469EB00846F9
:1019E00008F08EF9642000F0B9FC21684F482631D8
:1019F00001F068FB606A48BB4D4801F027FB01F02D
:101A000003FC07904B4801F021FB01F0FDFB08901F
:101A1000494801F01BFB01F0F7FB099023680AA974
:101A2000464826330A930DF0C5F8454B09AA07A985
:101A300020680293434B01930023009308AB07F007
:101A400093F8024670B1404809F0C2FC01F0DCFB9B
:101A50000790E06A01F0D8FB0990A06A01F0D4FB7E
:101A60000890DBE739490590206807F09FF8059A50
:101A70003749206807F09AF8364916A82F4E08F023
:101A8000B3FB16A808F0B8FB4FF0FF3301220CA9F6
:101A90001CA8314F0DF006FD022311A92F481A464C
:101AA000DFF8C4800DF0FEFC03200DF00FFD4FF0B9
:101AB000FF300DF043FDC207054611D530460DF04D
:101AC000B7F8216891F82D30C3F38003984207D00E
:101AD00030B3234808F0D2F82146224808F0CEF867
:101AE000AB07E4D540F606050BA92068FFF74EFFCB
:101AF0000028DCD00B9B002BF6D05B68988901F0A6
:101B00007FFBB0F5006F01D0A84205D121680B988A
:101B1000CB6898470028E7D00B9801F0EBFDE3E78E
:101B2000384608F0ABF821464046D7E71C3201089A
:101B30002E3201083C32010848320108346C002082
:101B4000619C00080919000856320108A5320008F6
:101B5000DD340008404B4C00613500084C6C00201F
:101B600021350008311900080519000808B5FFF7EC
:101B700031FF00002DE9F74F8046009100F028FC6E
:101B800000F580600EF02AFC054600284AD0044685
:101B9000C14699F900B0BBF1000F41D0A9EB080391
:101BA000009A93423CD2BBF17B0F09F1010703D0AD
:101BB00004F801BBB946ECE77D21384610F000FB84
:101BC00006460028F4D0A0EB09024FF0030BDFF823
:101BD0005C9002F1FF3AD9F800301846019300F00A
:101BE000F7FB5045019B11D152463946184600F08B
:101BF000CFFB58B9D9F804702046394610F0EEFAF8
:101C0000384600F0E5FB771C0444D3E7BBF1010B39
:101C100009F10809DFD14FF07B0304F8013BC9E764
:101C200000232370284603B0BDE8F08F182300205E
:101C3000F7B54FF480600E460E4F0EF0CFFB044612
:101C40000546642301220DF10701304601F06CF9CD
:101C500001280CD19DF8073005F8013B2B1B032B05
:101C6000EFDD3946281F00F0A7FB0028E9D1204608
:101C700003B0F0BD7B3301082DE9FF41044620206D
:101C800010F0B0F9054610B1002101F0DFF8502244
:101C900027492846274FDFF8A88001F0FBF91421D7
:101CA000284601F085F91421284601F08DF994F8B1
:101CB000303006467BB1002384F83030BFF34F8FBD
:101CC0001D491E4BCA6802F4E0621343CB60BFF3A8
:101CD0004F8F00BFFDE794F831203AB14FF47A708E
:101CE00084F8313000F03AFBFEF7D8FC002EDAD051
:101CF000082010F077F93C2241463B46C0E90046F7
:101D0000009040F6F8100EF0A9FB40F24A2204F1D0
:101D1000080103A800F038FF206A20B1C36B2362DA
:101D20000DF06AFEF8E703A800F038FFBBE700BF3C
:101D300074320108B520000800ED00E00400FA0547
:101D40007C32010808B5FFF797FF000013B5044681
:101D500001F0F0F90CF018FF342010F043F90A4BB1
:101D600020603C22094940F6F81000940EF076FB02
:101D7000074B3C220749606040F6F81000940EF0D3
:101D80006DFB02B010BD00BF6D1B0008883201085A
:101D9000451D0008903201084FF00053054A1968AC
:101DA000914206D15A6822B142629A68C262DB68E7
:101DB000836270479AAD44C50EB477B5044607AD4B
:101DC00000F1340140F27D2255F8046B4C34684632
:101DD00000F0DAFE2B4632464FF480712046019522
:101DE00009F0CEFA21460548FFF724FD684600F0C9
:101DF000D5FE03B0BDE8704003B07047173201084C
:101E00002DE9F04F0746ADF5037D884614460025C1
:101E10006423012202A9404601F086F8012840F01F
:101E2000A8809DF90830013C0D2B04D1022D0CBF78
:101E300003250125ECE70A2BE9D105F0FD06012E6B
:101E4000E5D10135EDB2042DE2D14E493846FFF718
:101E5000B3FF3046002600F0C5F9304600F0D2F955
:101E600090B10021304600F0E5F968B101360A2052
:101E700000F074FA30460EF03BF9054600200EF0F3
:101E800037F9281AA042E8D324F003044FF00009E0
:101E90004FF0640BDFF8FCA0B4F5001F4E4628BFDE
:101EA0004FF40014A6423ED2A21B42F2107302A9C4
:101EB0004046B2F5007F28BF4FF40072019201F056
:101EC00033F8051E2FDD15F003010ED0019A95425F
:101ED0000BD2C1F1040202A942F210734046294418
:101EE00001F022F80028C8BF2D1830462E44C5F353
:101EF000870202A90BFB06F500F07AFA0A22B5FB6D
:101F0000F4F5EDB2B5FBF2F302FB1353DBB23BB9D0
:101F1000A94506D02A4651463846FFF74DFF00E056
:101F20004D46A946BEE716F01F040DD04FF40072CF
:101F3000FF2102A800F054FAC4F1200202A93046A1
:101F4000C2F3870200F054FA00F086F9002000F096
:101F500049F900F09BFD024678B901230A49384649
:101F600087F83130FFF728FF66220849404600F025
:101F7000A5FF0DF5037DBDE8F08F05493846FFF755
:101F80001BFFF6E79C320108B6320108C532010892
:101F90002C330108A8320108F0B50C4685B005467F
:101FA000FFF746FE06463F223B49204600F086FFEB
:101FB00007223A49304600F0EBF9D0B938493046AB
:101FC00010F028F9A8B1113010F02EF82146024681
:101FD0002846FFF715FF304610F002F8002C49D0D4
:101FE000204600F047FF204605B0BDE8F0400FF066
:101FF000F7BF1B222B49304600F0CAF9A8B940F2BE
:10200000F91205F1340103A800F0BEFD05F14C0101
:102010000846019100F0DCF901990246204600F0E3
:102020004DFF03A800F0BAFDD5E70B221E4930464C
:1020300000F0AEF910B9012385F83030002303A970
:102040001A48039308F00AF995F8303007469BB117
:1020500048221749204600F031FF30460FF0C0FFFC
:102060002CB1204600F006FF20460FF0B9FF38469D
:1020700008F002F905B0F0BD0399FFF77BFD0546B6
:1020800000F0A6F902462946204600F017FF284630
:102090000FF0A6FFE1E700BF4033010880330108DD
:1020A000883301089A330108B6330108C2330108A6
:1020B000CD33010873B50446D0E90001FFF76CFF8A
:1020C00025680A4B2046DE680FF08AFF40F2232283
:1020D00005F1080101A800F057FD2B6A01A8F36380
:1020E0002E6200F05BFD02B070BD00BF706C00207E
:1020F0000F4B70B51B780C460133DBB2012B11D8A6
:102100000C4D4FF47A732968A2FB033222460E6A03
:1021100001462846B047844204D1074B00220120E3
:102120001A7070BD4FF4FA700DF0AEFC0020F8E7A5
:1021300030230020306F0020A8650020002307B561
:10214000024601210DF107008DF80730FFF7D0FF9F
:1021500020B19DF8070003B05DF804FB4FF0FF309D
:10216000F9E700000A46042108B5FFF7C1FF80F037
:102170000100C0B2404208BD30B4054C0A460146D9
:1021800023682046DD69034BAC4630BC604700BF86
:10219000306F0020A086010070B5104C0025104E55
:1021A0000DF0B2FF20803068238883420CD80025D0
:1021B000208801380DF0A4FF23880544013BB5F5C4
:1021C000802F2380F4D370BD0DF09AFF336805444F
:1021D0000133B5F5003F3360E5D3E8E7AA65002099
:1021E0007C6500200EF05EB800F1006000F5003064
:1021F0000068704700F10060920000F500300DF0BB
:10220000DFBF0000054B1A68054B1B889B1A8342F1
:1022100002D910440DF074BF002070477C65002087
:10222000AA650020024B1B6818440DF06FBF00BF69
:102230007C650020024B1B6818440DF079BF00BF7D
:102240007C6500200020704700F1FF5000F58F10E2
:10225000D0F8000870470000064991F8243033B1E7
:1022600000230822086A81F82430FFF7C3BF012049
:10227000704700BF80650020014B1868704700BFA1
:102280000010005C194B01380322084470B51D682A
:10229000174BC5F30B042D0C1E88A6420BD15C68AE
:1022A0000A46013C824213460FD214F9016F4EB127
:1022B00002F8016BF6E7013A03F10803ECD1814221
:1022C0000B4602D22C2203F8012B0424094A16885B
:1022D000AE4204D1984284BF967803F8016B013C6A
:1022E00002F10402F3D1581A70BD00BF0010005C67
:1022F0003423002078340108022804D1054B4FF420
:1023000080429A6170470128FCD1024B4FF4004291
:10231000F7E700BF000C0258022804D1054B4FF02C
:1023200080429A6170470128FCD1024B4FF0004275
:10233000F7E700BF000C0258022805D1064A53698E
:1023400083F48043536170470128FCD1024A5369EA
:1023500083F40043F6E700BF000C025870B5044652
:102360004FF47A764CB1412C254628BF412506FB17
:1023700005F0641B0DF088FBF4E770BD002310B579
:10238000934203D0CC5CC4540133F9E710BD000084
:10239000013810B510F9013F3BB191F900409C4262
:1023A00003D11AB10131013AF4E71AB191F90020D1
:1023B000981A10BD1046FCE70138013910F9013FA9
:1023C00011F9012F0BB19342F8D0981A7047000011
:1023D00003460246D01A12F9011B0029FAD17047B0
:1023E00002440346934202D003F8011BFAE7704708
:1023F0002DE9F8431F4D14460746884695F82420DA
:1024000052BBDFF870909CB395F824302BB9202292
:10241000FF2148462F62FFF7E3FF95F8240041466D
:10242000C0F1080205EB8000A24228BF2246D6B2C6
:102430009200FFF7A3FF95F82430A41B17441E4415
:102440009044E4B2F6B2082E85F82460DBD1FFF7A1
:1024500003FF0028D7D108E02B6A03EB82038342F5
:10246000CFD0FFF7F9FE0028CBD10020BDE8F883DC
:102470000120FBE780650020024B1A78024B1A709E
:10248000704700BFA86500203023002010B5114C14
:1024900011480CF043FC21460F480CF06BFC2468FB
:1024A0004FF47A70D4F89020D2F8043843F0020345
:1024B000C2F80438FFF752FF084920460CF068FDC7
:1024C000D4F89020D2F8043823F00203C2F804387C
:1024D00010BD00BFA05E0108306F0020A85E01089B
:1024E00070470000F0B5A1B071B6002301200024B0
:1024F00080261A4619460CF003F84FF4D067214A9B
:102500003D25136923BBD2F810310BBB036804F1DE
:10251000006199600368C3F80CD003685E600368CB
:102520001F6001680B6843F001030B6001680B68D2
:1025300023F01E030B6001680B68DB07FCD4037BF0
:102540008034416805FA03F3B4F5001F0B60D8D15D
:102550000CF00CF8B4F5001F11D000240A4E0B4DFE
:1025600001200DF09FFE3388A34205D9286820443E
:1025700001340DF0DDFDF6E700200DF093FE61B6AD
:1025800021B0F0BD00200052AA6500207C6500202B
:102590002DE9F8430D46044600219046284640F2B6
:1025A0007912FFF71DFF234620220021284604F15F
:1025B00022070BF089F8231D022220212846C0267D
:1025C0000BF082F8631D0322222128460BF07CF8D1
:1025D000A31D0322252128460BF076F804F10803F9
:1025E0001022282128460BF06FF804F1100308226E
:1025F000382128460BF068F804F111030822402125
:1026000028460BF061F804F11203082248212846FD
:102610000BF05AF804F114032022502128460BF045
:1026200053F804F118034022702128460BF04CF8AF
:1026300004F120030822B02128460BF045F804F1EC
:1026400021030822B82128460BF03EF8314608360F
:102650003B460822284601370BF036F8B6F5A07F36
:10266000F4D1314604F13203082228460BF02CF84D
:10267000002794F8326004F13309F900BE4201F5F5
:10268000A4711FD8F70007F5A476B8F1000F08D1A0
:10269000314607F24F1604F59973072228460BF0CE
:1026A00013F894F83201B046502828BF502007464E
:1026B00004EB0009A1450DD106EBC7000730C008A7
:1026C000BDE8F88309EB07030822284601370AF022
:1026D000FBFFD2E704F2331341460822284608F1F3
:1026E000080801340AF0F0FFE4E7000013B50446DF
:1026F000084600212022234601900160C0F8031003
:102700000AF0E2FF231D0198022220210AF0DCFFDB
:10271000631D0198032222210AF0D6FFA31D019810
:10272000032225210AF0D0FF019804F108031022AA
:1027300028210AF0C9FF072002B010BD2DE9F84397
:102740000E4605460021174630467B22FFF748FE1D
:102750002B460322002130460AF0B6FF6B1C0522EF
:10276000032130460AF0B0FF6C7801231F2C28BFEC
:102770001F24D90003F10108013BA3421CD30134FB
:10278000E4B2E4003FB92146073405F121030722F2
:1027900030460AF099FF95F82100A0465A2828BF34
:1027A0005A20074605EB00094D450DD104EBC70043
:1027B0000730C008BDE8F88305EB0803082230465F
:1027C0000AF082FF4346D4E705F12203414608227E
:1027D000304608F1080801350AF076FFE4E700000A
:1027E000F7B5047F05460E462CB1838A122B02D919
:1027F000012003B0F0BD00230722284600961946A9
:102800000AF026FE731C01220721009328460023AC
:102810000AF01EFED4B9B31C0522082128460093F5
:1028200023460D240AF014FEB378102BE0D8374667
:10283000BB1BB278934210D307342B7FA88AE408DD
:10284000B3B9844294BF00200120D2E7AB8A0824A8
:10285000DB00083BDB08B370E6E7FB1C21460822DF
:10286000284600930023083401370AF0F1FDDFE722
:10287000201A18BF0120BCE7F7B5047F05460E46B5
:102880002CB1838ACA2B02D9012003B0F0BD0023EA
:1028900008222846009619460AF0DAFD731CD4B9BE
:1028A0000822009323461024114628460AF0D0FD42
:1028B0007378C82BE8D801235F1C7278013B9342E0
:1028C00010D307342B7FA88AE408B3B9844294BF9D
:1028D00000200120D9E7AB8A0824DB00083BDB0895
:1028E0007370E5E7F3192146082228460093002378
:1028F0000AF0AEFD08343B46DEE7201A18BF01207F
:10290000C3E700002DE9F8430D46044616460021B2
:1029100081222846FFF764FD23460822002128462D
:102920000AF0D2FEC6B90F26631C072208212846EA
:102930000AF0CAFE94F90130B0466778002BB8BFA0
:102940007F2704EB07094C4508D10736082010FB08
:102950000760C008BDE8F8830826EBE7A31C4146E2
:102960000822284608F1080801340AF0ADFEEAE71B
:102970002DE9F0410D46044616460021CE22284698
:10298000FFF72EFD23462822002128460AF09CFE50
:10299000BEB9302604F108030822282128460AF08F
:1029A00093FE14F8080F0027C82828BFC8208046C7
:1029B000B84506EBC70106D806EBC800C008BDE85D
:1029C000F0812826EDE7013708222846E3190AF0AE
:1029D0007BFEEDE7F7B5047F05460E4634B1838AEA
:1029E000B3F5827F02D9012003B0F0BD012310228C
:1029F0000021284600960AF02BFDDCB9B31C092201
:102A0000102128460093234619240AF021FD7388DB
:102A1000B3F5807FE7D83746BB1B7288934210D34B
:102A200007342B7FA88AE408B3B9844294BF0020FE
:102A30000120D9E7AB8A1024DB00103BDB08738050
:102A4000E5E73B1D21460822284600930023083471
:102A500001370AF0FDFCDFE7201A18BF0120C3E7A9
:102A600030B50A44084D91420DD011F8013B584051
:102A7000082340F30004013B2C4013F0FF0384EAD9
:102A80005000F6D1EFE730BD2083B8EDF7B5384AF6
:102A90006B46106851686A4603C3082335493648B7
:102AA0000FF0EAFA0446002833D10A25334A6B4670
:102AB000106851686A4603C3082331492E480FF055
:102AC000DBFA0446002849D00369B3F5F01F45D866
:102AD000B0F8661040F2355291423FD1294A024483
:102AE00002F15C018B4239D35C3B234900209E1AE2
:102AF000FFF7B6FF04F16401074632460020FFF7F6
:102B0000AFFFA3689F4229D1E368984208BF002520
:102B100024E00369B3F5F01F27D8418B40F235520A
:102B2000914220D1174A024402F110018B4218D37E
:102B3000103B114900209D1AFFF792FF04F1180184
:102B400006462A460020FFF78BFFA3689E4202D16B
:102B5000E368984201D00D25A8E70025284603B078
:102B6000F0BD1025A2E70C25A0E70B259EE700BFCE
:102B700088340108DCFF1D000000020891340108C0
:102B800090FF1D000800FEF710B50B6804460846CC
:102B90009B6821609847204610BD000010B5044690
:102BA00000680368DB689847204610BD10B5037CB9
:102BB000044613B900680DF04DFC204610BD00001E
:102BC0000023BFF35B8FC360BFF35B8FBFF35B8FEB
:102BD0008360BFF35B8F7047BFF35B8F0068BFF309
:102BE0005B8F704770B505460C30FFF7F5FF044664
:102BF00005F108063046FFF7EFFFA04206D96D68E1
:102C00003046FFF7E9FF2544281A70BD3046FFF72C
:102C1000E3FF201AF9E7000070B505464068A0B14F
:102C200005F10C0605F10800FFF7D6FF0446304613
:102C3000FFF7D2FF844204F1FF34304694BF6D6841
:102C40000025FFF7C9FF2C44201A70BD38B50C468B
:102C50000546FFF7C7FFA04210D305F10800FFF7B4
:102C6000BBFF04446868BFF35B8FB4FBF0F100FB6B
:102C700011440120AC60BFF35B8F38BD0020FCE73E
:102C80002DE9F041144607460D46FFF7C5FF844283
:102C900028BF0446D4B1B84658F80C6B4046FFF73D
:102CA0009BFF3044286040467E68FFF795FF331A4B
:102CB0009C4203D801206C60BDE8F081A41B6B60CE
:102CC0003B682044AB60E8600220F5E72046F3E76C
:102CD00038B50C460546FFF79FFFA04210D305F11B
:102CE0000C00FFF779FF04446868BFF35B8FB4FB07
:102CF000F0F100FB11440120EC60BFF35B8F38BDA5
:102D00000020FCE72DE9FF418846694607466C46EE
:102D1000FFF7B6FF002506B204EBC606B4420AD0A0
:102D2000626808EB050120680834FFF727FB54F8B8
:102D3000043C1D44F2E729463846FFF7C9FF284600
:102D400004B0BDE8F0810000F8B505460C300F4630
:102D5000FFF742FF05F1080604463046FFF73CFF47
:102D6000A042304688BF6C68FFF736FF201A3860F3
:102D700020B12C683046FFF72FFF2044F8BD00003B
:102D800073B5144606460D46FFF72CFF84420190AA
:102D900028BF0446DCB101A93046FFF7D5FF019BEF
:102DA00033B93268C5E90233C5E9002401200CE0DB
:102DB0009C42286038BF0194019884426860F5D92C
:102DC0003368241A0220AB60EC6002B070BD20466C
:102DD000FBE700002DE9FF410F4669466C46FFF70F
:102DE000CFFF00B2002604EBC005AC4209D0D4F8F6
:102DF0000480B81954F8081B42464644FFF7BEFA4F
:102E0000F3E7304604B0BDE8F081000038B5054670
:102E1000FFF7E0FF044601462846FFF717FF20466C
:102E200038BD00001FB504464FF0FF331046217037
:102E30006261A36139B9042301220621009303AB27
:102E4000039206F075FD204604B010BD38B50D1E86
:102E500004464FF000024FF0020014BF022101218E
:102E600006F0CAFB294602462046FFF7DBFF204654
:102E700038BD000010B504464069421C01D006F080
:102E800061FAA069431C01D006F05CFA204610BD2F
:102E90001FB54069431C0ED00123042240F6FF7188
:102EA000039303AB009206F043FD013018BF0120ED
:102EB00005B05DF804FB0020FAE700004069431C00
:102EC00002D0202306F054BB7047000010B584697F
:102ED00088B00023621CCDE9023302D14469621C30
:102EE00020D008AA630904F01F0002EB830301222B
:102EF000824043F8182C4FF47A720023B1FBF2F0B1
:102F000002FB1011514304AACDE904030691601C91
:102F1000009202A91A4606F0A9FB431E58425841E6
:102F200008B010BD1846FBE730B58BB00D4619460A
:102F300004460392FFF7CAFF039A30B90FF086F8F0
:102F40000B2303604FF0FF3515E0A06910232946DD
:102F50000493431C04AB08BF60690193231D0093D5
:102F6000082306F051FA051E08DC23781BB9237FDD
:102F70000BB105B9257728460BB030BDA3690133E5
:102F8000F9D0102305AA06A96069059306F0CCFCC8
:102F90000028D7D1636823F0FF02069B23F0FF03CC
:102FA0009A42E8D1A268079B9A42E4D1CAE700009E
:102FB00008B54069431C05D006F0FCF9B0FA80F072
:102FC000400908BD0020FCE77FB543690446013392
:102FD00003D10024204604B070BDFFF777FF00281E
:102FE000F7D0102302AA211D6069029306F0C2F8EF
:102FF000431C0546EDD020200EF0F4FF04460028C7
:10300000E8D0002301264561062103704FF0FF330D
:1030100032460396836104232846009303AB06F0EF
:1030200087FC20462677FFF733FFD3E713B50C461E
:103030000092019000F0E8F8009B224601A901905F
:10304000022006F055FD02B010BD0000002307B5B8
:10305000014601AA0220019306F066FD019800F0E6
:10306000D3F803B05DF804FB70B51646184610227D
:103070000D4600211C46FFF7B3F9304600F0C0F8BA
:103080000223608028466370FFF7E0FF00F0BCF881
:10309000606070BD1FB54369044601330FD06B46B5
:1030A000FFF7E2FF2046FFF7F3FE10226946606952
:1030B00006F00EF9B0FA80F0400904B010BD00200F
:1030C000FBE7000070B586B005460C46FFF780F9B7
:1030D0001128024621D1294601A80FF087F8651E64
:1030E000002305340E4E6A460D4901A88DF81530AF
:1030F00000930FF0CDF880B1102200210FF0CAF933
:10310000FF280AD805F8010F6A46314600200FF063
:10311000BFF8AC42EFD1012000E0002006B070BD46
:103120009833010808B50B460146014808F050F9EC
:103130009C340108F8B50120002301334000DBB2C4
:103140000E2BFAD10DF082F900284CD0264A062326
:10315000C2F89830254BC2F89C00C2F8A030052375
:10316000C2F89430536A43F4803353620023C2F8A8
:103170008430BFF34F8FD2F8803043F6E075C3F34D
:10318000C904C3F34E335B0103EA0507214647EA4E
:1031900081760139C2F87462F9D2203B13F1200F15
:1031A000F2D1BFF34F8FBFF36F8F114B00F140028D
:1031B0001860104B1A6000F160020F4B1A6000F2A9
:1031C00054625A6000F648429A6000F591521C32EF
:1031D000DA6000F5C15300F5F150084A10330430AD
:1031E000136050600120F8BD00ED00E01B000C03EF
:1031F000BC650020C8650020AC650020C0650020CB
:1032000040BA80B27047000000BA70476FF00B0000
:103210007047000010B5044628B90B4A40F29931B6
:103220000A48FFF77FFF94F82D3003F00502052AC6
:1032300009D122683AB11B0705D521462046BDE8D1
:10324000104004F051BC10BDAC340108D03401086A
:1032500073B5044616460D4629B90F4A4FF4EE7170
:103260000E48FFF75FFF23682A689A4201D10020C9
:1032700010E001A930463360019201F0B9F82B68E3
:10328000012120462360FFF7C5FFA3690BB120464B
:103290009847012002B070BDAC340108F434010835
:1032A0007047000010B5044606F028FE014B1C6074
:1032B00010BD00BFD065002010B5044606F01EFE0C
:1032C00054B1064B186830B190F830300133DBB29E
:1032D000A34218BF002010BD2046FCE7D0650020A7
:1032E00010B5044606F00AFE0CB9002010BDA01C63
:1032F0000EF09AFE10F0FF0303D194F90220302A59
:10330000F3D10A4A10680028EFD090F830209A4292
:10331000EBD194F9002090F92E309A42E5D194F93E
:10332000012090F92F309A42DFD1DFE7D0650020ED
:103330000C4B2DE9F0410E4617461C68054628B98E
:10334000094A40F247710948FFF7ECFE0CB9BDE8A5
:10335000F081D4E900383A46314628464446984739
:10336000F4E700BFCC650020AC3401080435010847
:103370002DE9F04387B099460E469046054606F083
:10338000BDFD2C4B002E08BF1E46B8F1000F08BF34
:103390009846B9F1000F08BF99463368002B45D114
:1033A00002AF314628463A46FFF752FF044688B33B
:1033B0000397102401276A68D8F8003093421EBF93
:1033C000009244F040046B60AA68D9F8003018BF3E
:1033D000CDF810D093421FD0AB6001AB44F0200475
:1033E000019205935FB90DF108083146284642461F
:1033F000FFF72EFFA8B144F01004CDF80C8044F084
:10340000800487B103AA21462846FFF791FF07B041
:10341000BDE8F0830127CEE7002FE4D0002CF6D0E2
:10342000EDE7002CEBD144F48064EBE700273C4649
:10343000C1E700BFB44901082DE9F843DDF8249045
:10344000984604460E46174606F058FD1E4B1D686A
:103450004DB100251D4A40F22D111D48FFF762FEB7
:103460002846BDE8F883002CFAD0B9F1000FF7D058
:10347000184B204618492361089B002F14BF3A4679
:103480000A46A56023620A9BA584E360B8F1000F99
:1034900014BF43460B4684F82D50002E18BF31460A
:1034A00084F83050C4E90055C4E90655FFF760FFC1
:1034B0002046C8470028D3D12A4601212046254668
:1034C000FFF736FFCCE700BFD0650020AC34010821
:1034D0001C3501080D320008B44901081FB5044627
:1034E00006F00CFDD4B194F82D30DA0716D443F071
:1034F000010384F82D30A3690BB1204698470123BE
:10350000204601AA08218DF80430FFF711FF03219E
:10351000204604B0BDE81040FFF77CBE04B010BDEB
:103520001FB5044606F0EAFCBCB194F82D305A07EA
:1035300013D443F004030321204684F82D30FFF711
:1035400069FEE3690BB120469847012301AA0421D3
:1035500020468DF80430FFF7EBFE04B010BD0000EC
:103560001FB5044606F0CAFC9CB194F82D305A07EA
:103570000FD523F0040384F82D30E3690BB1204606
:103580009847002301AA042120468DF80430FFF754
:10359000CFFE04B010BD000008B506F0E3FD084BF7
:1035A00000221A7006F0E6FD064B186800B908BD47
:1035B000436F1BB1BDE8084000F0E0BDC068F5E70F
:1035C000D4650020D865002038B560B9144A4FF49E
:1035D000F1711448FFF7A6FD01201FE0002AFBD07F
:1035E0004268511A14E0B1F5803FF5D2A9B10389C0
:1035F0008CB213FA81F39BB29C42EDD890F90C5037
:10360000002DEBDA4268511A00F110029142E3D327
:1036100042894160144403814481002038BD00BFC9
:10362000383501081A36010822F04003012B70B525
:1036300006460D46144605D0094A4FF4A5710948BF
:10364000FFF770FD0B2008F067F840B100230581FB
:10365000458143730473C0E900360123C38170BD03
:10366000383501085C350108033020F0030070B5DF
:103670000E18BDF81450049CAE420DD804B1044499
:1036800018460023C0E900340223018141814373BD
:1036900001230273C38170BD0020FCE70022FFF705
:1036A00093BF000010B538B90C4A40F24E210C48C7
:1036B000FFF738FD012010E0B1F5803FFAD259B193
:1036C0008AB243899A42F5D89B1A446843812144BF
:1036D000038941609B1A0381002010BD3835010821
:1036E0001A3601080B1E02DA5942FFF7DBBF01222E
:1036F000FFF76ABF2DE9F047044648B92546294A35
:1037000040F2DE212848FFF70DFD2846BDE8F0878E
:103710000025244FDFF89880DFF8989006F022FD0E
:10372000A37B82462BB93A4640F2F3214046FFF78D
:10373000F9FCA67B5046013EF6B2A67306F01AFDD0
:10374000002EE2D1637B26689B0710D523692BB935
:103750003A4640F201311548FFF7E4FC2369204660
:1037600098470135EDB2002ECFD03446D6E7237B03
:1037700003F00F03022B04D121460C2007F0D8FFE1
:10378000EFE7012B02D121460B20F7E71BB92046BA
:1037900007F06EFFE5E73A4640F211314846FFF781
:1037A000C1FCDEE7383501081A3601088635010804
:1037B00070350108A7350108B2F5C17F2DE9F84F32
:1037C00004460F4613D008D822F04003012B07D13E
:1037D0000020BDE8F84FFFF727BFB2F5207F5BD090
:1037E0003B4A40F227113B48FFF79CFC21E00026B2
:1037F00084B2DFF8DC903546DFF8ECA00C20B3464D
:1038000007F08AFF0646D0B9334C06F0ABFC012323
:1038100027782370FFB206F0ADFC4FB931462F4830
:1038200006F02CFA20B106F09DFC267006F0A2FCF2
:103830000DB900252BE02846FFF75CFFF9E7E31CF4
:1038400004440021264A23F0030313340160C3F526
:10385000807824F0030407811FFA88F84460C2606E
:10386000B84528BFB846B3F5807FA0F80A8005D1D7
:103870004A464FF481715046FFF754FC55B1CBF8DE
:103880000060A7EB08070024BFB2002FB6D128467E
:10389000BDE8F88F3546F4E7CB1C033023F0030373
:1038A00020F00300184410308342C2D807F0C6FE4F
:1038B00005460028EBD0044400230781133403603D
:1038C000084B24F003044781C3604460DFE700BF76
:1038D00038350108F0350108D46500209935000815
:1038E0008200010080000100BC3501082DE9F04193
:1038F0000D46044628B9234A4FF4CC712248FFF7FD
:1039000011FC2389AB423BD9EE1A1E4FDFF88480AD
:103910006389AB421BD3227B120729D1AB4227D04C
:10392000637B9B0724D461682046091B294407F068
:1039300083FED8B9134A40F2BD111448FFF7F2FBD9
:10394000104A40F2BF111248FFF7ECFB10E0ED1AED
:1039500023893344ADB223812468002CD8D13A4660
:1039600040F2AF114046FFF7DDFBD1E78442E7D1DB
:1039700020686581258108B1FFF7BCFE0023236024
:10398000BDE8F081383501080C3601083C360108E5
:103990005836010824360108F8B50D4604460026BD
:1039A00085B17CB16189A94208D827686D1A204683
:1039B0002660ADB23C46FFF79DFEF1E72946204662
:1039C000FFF770FE2046F8BD0346002290B2013298
:1039D00003B970471B68F9E710B5044680B106F0DB
:1039E000C1FBA37B0133A37306F0C4FBA37B3BB9EC
:1039F000044A4FF451710448BDE81040FFF792BBF0
:103A000010BD00BF383501087436010838B50D46C1
:103A1000044600B121B938BD29890B4423811446DD
:103A200022682389002AF7D162899A420DD00A4A76
:103A30004FF459710948FFF775FB23682BB1064A0B
:103A400040F265310648FFF76DFB2A89238925601E
:103A500013442381DFE700BF3835010888360108A9
:103A6000B53601082DE9F84F054616461F460C46A7
:103A7000002947D00B89934244D3002842D00289C1
:103A8000BB199A423EDB4FF00008DFF8C090DFF828
:103A9000C0A0B5F80AB06289ABEB070B6868A2EB6F
:103AA0000802616838449345414428BF9346B345B2
:103AB00028BFB3465A465F44FEF760FC6B89A6EB0D
:103AC0000B06D844BB42B6B205D24A4640F2F731A3
:103AD0001D48FFF727FB6389434505D24A464FF44B
:103AE0007E715046FFF71EFB6389434504D8246866
:103AF00004B93EB94FF000086B89BB4220D12D6854
:103B0000EDB9C6B16FF00F0010E037466289238926
:103B10009A4201D123685BB92DB16A892B899A42F7
:103B200001D12B6823B9002EB3D13046BDE8F88F00
:103B30006FF00500FAE7002CE7D12046F6E70027F2
:103B4000002CE3D1E9E700BFC83601083835010889
:103B5000DF36010819B100230A89FFF783BF6FF030
:103B60000F0070472DE9F0410F469046054618B307
:103B700021B30026B8F1000F00D015B93046BDE8DA
:103B8000F0816C892BB1A34203D31B1B9BB22D6820
:103B9000F0E7E41A6968B819A4B21944444528BF8B
:103BA000444622462644A8EB0404FEF7E7FBB6B2DF
:103BB00000231FFA84F8EAE70646DFE70E46DDE752
:103BC00038B515460A462989FFF7F6FD044648B17F
:103BD0002946FFF7BFFF28B1034A40F2435103488B
:103BE000FFF7A0FA204638BD38350108FC36010839
:103BF000F0B5124C4FF480404FF6FF762388013326
:103C00000F4D04229BB2B34208BF4FF4404355F816
:103C1000041B096831B9013A12F0FF02F7D11846C6
:103C2000238007E0CF8A9F4205D1013880B2002867
:103C3000E5D12380F0BDC968ECE700BF5023002028
:103C4000203C010808B506F021F96FEA8040024BDC
:103C50006FEA9040188008BD5023002010B5037D06
:103C60000446012B04D1054AD4210548FFF75AFA2E
:103C700021460020BDE8104007F05ABD103701086A
:103C80003237010810B5044628B90F4A4FF4947131
:103C90000E48FFF747FA06F031F9638B9B0511D404
:103CA000E36F7BB15A7F01325A77E36F5B7F2BB9A9
:103CB000054A40F22D110648FFF734FA638B43F4AE
:103CC0000073638310BD00BF10370108443701083B
:103CD0005037010810B5044628B90F4A40F23F1189
:103CE0000E48FFF71FFA06F009F9638B9B0511D503
:103CF000E36F7BB15B7F2BB9074A40F24311084861
:103D0000FFF710FAE26F537F013B5377638B23F485
:103D10000073638310BD00BF1037010844370108EA
:103D20005037010810B5044628B9174A4FF4CE7130
:103D30001648FFF7F7F9237D042B11D0072B1BD072
:103D4000032B0BD1204603F079F870B92046FFF71A
:103D5000C1FF05232046237503F0B6F9002010BDEE
:103D6000204603F06BF80028F3D0431CF7D1638B97
:103D700043F008036383F1E7204603F05FF800286F
:103D8000F3D10923E6E700BF1037010844370108E3
:103D9000F8B50E460546144606F0B0F81B4B002E4B
:103DA00008BF1E4645B32B7D4BBB34B9FFF720FF40
:103DB000044650B96FF0010012E0154951F8042B88
:103DC000126872B90133042BF8D1336803B12B6048
:103DD000104BEC821A681D60EA6003F03FFC002083
:103DE000F8BDD08AA04205D117685FB1306848B1EC
:103DF000874207D0D268E4E76FF00F00F0E76FF07A
:103E00000500EDE76FF00700EAE700BFB4490108DD
:103E1000203C0108E065002038B50C46054606F058
:103E20006DF81CB194F830400134E4B22C7238BD06
:103E3000F8B505460E46174606F060F8002D4CD042
:103E40002B7D002B4DD1012007F066FC0446002895
:103E50004BD02B690361EB8AC382012303756B7D11
:103E600043756B7A43722B7A0372EB7AC372AB7A27
:103E700083722B680360EB8A3BB11D4A1368AB4227
:103E800023D1EB6813600023EB602846FFF7E6FEC2
:103E9000184BA36100236377237D012B05D0164ABD
:103EA0004FF465711548FFF73DF9154B012E1A685F
:103EB00038BF01261C602677E26003F0CFFB0023A9
:103EC00007B13B702046F8BD1346002BDBD0DA6803
:103ED000AA42F9D1EA68DA60D5E72C466FF00F0301
:103EE000EEE76FF00E030024EAE74FF0FF33E7E759
:103EF000E065002095430008103701086837010885
:103F0000E4650020F8B5044628B9134A40F2AA3106
:103F10001248FFF707F9228D41F27076E36A678E47
:103F2000656AD01AB742284494BFC11B811B00297F
:103F300001DB6285F8BD5D1B02D500206085F9E7D5
:103F4000B5F5803F05D3044A40F2BA310448FFF783
:103F5000E9F800206585EDE710370108983701087A
:103F6000BC37010838B505460C4605F0C7FF2DB330
:103F70002B7D012B05D1124A40F2D6311148FFF7B3
:103F8000D1F82A8D42F6E063111989B2994213D80B
:103F90008A4288BF194628462985FFF7B3FF40F6B5
:103FA000B73398420AD96B8B284643F002036B83E0
:103FB000BDE8384003F088B81946ECE738BD00BFCB
:103FC00010370108D837010810B5044648B14068D9
:103FD00008B1FFF78FFB21460220BDE8104007F033
:103FE000A7BB10BD10B500B910BD0468FFF7ECFF0A
:103FF0002046F8E738B5044628B90D4A40F28661F4
:104000000C48FFF78FF8022007F086FB054660B1E9
:104010002346024604F1100153F8040B8B4242F888
:10402000040BF9D16868FFF7D7FC284638BD00BFFC
:10403000103701080038010838B504460D4605F070
:104040005DFF04B1256138BD38B504460D4605F065
:1040500055FF54B1237D012B05D1044A4FF4FD6176
:104060000348FFF75FF8C4F8845038BD10370108E3
:104070001C38010838B504460D4605F03FFF54B121
:10408000237D012B05D1044A40F2FC710348FFF760
:1040900049F8C4F8805038BD103701084438010889
:1040A00038B504460D4605F029FF54B1237D012B98
:1040B00005D1044A40F616010348FFF733F8C4F867
:1040C000905038BD103701086C38010838B50446E7
:1040D0000D4605F013FF1CB1237D012B08BFA56120
:1040E00038BD000070B504460E46154605F006FFC3
:1040F0005CB1237D012B05D1044A40F648010448F8
:10410000FFF710F8C4F88C60657770BD10370108B0
:104110009438010808B528B9064A40F6B90106489E
:10412000FFF700F8054B064A18681268104418603B
:1041300008BD00BF10370108B43801084C23002027
:10414000E865002038B504460D462AB9094A40F60C
:10415000CF010948FEF7E6FF4DB1AB8C3BB1282BF0
:104160008ABF283B00239BB29C4228BF1C462046A6
:1041700038BD00BF10370108D038010810B504461B
:10418000406F18B1FFF72EFF0023636710BD0000DA
:1041900010B50446F8B1037D012B1CD90A2B1AD0A7
:1041A000FFF798FDA06F18B1FFF7A4FA0023A367EB
:1041B000636F13B12046FFF7E1FF4FF6FF73E06E28
:1041C0002386FFF70FFF206FFFF70CFF0023C4E9E2
:1041D0001B33A4F8683010BD38B505460C4629B924
:1041E000274A40F68D012748FEF79CFF2DB9244A47
:1041F00040F68E012448FEF795FF2B68A3421DD19F
:10420000E3682B6000232046E360FFF7C1FF237DB6
:104210000A2B1BD1E36E5BBB236F2BB1184A40F610
:104220009E011A48FEF77EFF636FEBB1144A4FF40C
:104230000A611748FEF776FF16E01346002BE1D01F
:10424000DA68A242F9D1E268DA60DBE7012B0BD031
:10425000638BDA07DED543F002032046638302F066
:1042600033FF237D012BD5D100232375E38238BD95
:10427000034A40F69D010748FEF754FFCCE700BF14
:1042800010370108F8380108143901084C390108C1
:1042900065390108343901082DE9FF4704460E4607
:1042A00005F02CFE002C61D0237D012B05D1314A75
:1042B0004FF410713048FEF735FF237D0A2B09D1EA
:1042C00021462E48FFF788FF204604B0BDE8F0479E
:1042D000FFF7C4BCD4F85090D4F824A0D4F8907060
:1042E000D4F81080E58A9BB93DB1254A1368A342F2
:1042F00006D1E36813600025E5602E460FE0134603
:10430000002BF8D0DA68A242F9D1E268DA60F2E76D
:1043100021461C48FFF760FF1B4B01221A70206FDB
:1043200008B1FFF75FFEE06E08B1FFF75BFE606F5C
:1043300008B1FFF757FE2046FFF7CCFC56B1238BA0
:10434000524649462046CDE90153231D009323469A
:1043500002F04EFE2046FFF781FC3FB16FF00C01EA
:1043600040463B4604B0BDE8F047184704B0BDE8FE
:10437000F08700BF103701087C390108F065002084
:10438000E0650020D8650020DC6500200121FFF7F2
:1043900083BF000010B50C4629B9064A4FF444719A
:1043A0000548FEF7BFFE2046FFF7F0FF6FF00C0058
:1043B00010BD00BF10370108B039010870B50C46B8
:1043C000054628B9084A40F60A110848FEF7AAFE31
:1043D00004B970BD22682B68E6689A4202D1204673
:1043E000FFF7D4FF3446F3E710370108D03901084E
:1043F00038B50D46044680B1036873B10B4B19689C
:10440000FFF7DCFF0A4B20461968FFF7D7FF25B1FD
:104410002B6813B1074B1B6803B938BD19682268B4
:10442000914204BF2A681A60DB68F5E7D86500206E
:10443000E0650020E46500200C4B002230B41968D0
:1044400004460B4B10461D6819B968B130BCFFF724
:1044500023BF0B7DA34205D10B6AEB1A934224BF05
:104460001A460846C968EFE730BC7047D865002097
:10447000E8650020F8B5054605F040FD002007F08E
:104480004BF90446002836D13E4F3868002856D1F3
:104490003D4B01463D4E1B683468002B5AD108B194
:1044A000FFF774FF002007F037F9044618BB092016
:1044B000FFF7C2FF204607F02FF90446D8B90820BD
:1044C000FFF7BAFF204607F027F9044698B92B06F4
:1044D00048D45DB12A46013A3B6836680021D2B221
:1044E000002B41D114B12046FFF750FF002007F008
:1044F00013F9044608B39C2200212046FDF770FF03
:1045000042F6E0636575A4F86430214BA362FF2393
:10451000E3720623A4F84030E3871E4B23631B4B52
:104520001B6823621C4B1B78A3771C4BA3641C4B9A
:10453000C4F884301B4BC4F894302046F8BD438B3C
:10454000C4681A0704D523F008034383FFF7EAFB86
:1045500020469BE71A6AA21A8A4224BF18461146CF
:10456000DB689AE77F22B6E75F7D974204D307D1E5
:10457000186A301A884203D3196A3A461C46711ADF
:10458000DB68ADE7D8650020F0650020E865002015
:10459000E02EE02EFFFF1802ED6500200100E02E66
:1045A0003947000800DD6D004020FFF763BF0000C1
:1045B00030B50D4685B0044628B94A4A4FF4AF716C
:1045C0004948FEF7AFFD237D002D3FD0042B01D0DD
:1045D000072B3BD1A26F22B9218D42F6E0629142B6
:1045E00034D0638BDB0605D43E4A4FF4B2713F48AA
:1045F000FEF798FD238B20460293E38A0193231D47
:1046000000932346626A216D02F0F2FC2046FFF718
:10461000BFFD374A1368A34210D1E368136000233B
:104620000122E360334B1A70334B1B68A3421DD148
:1046300001F060FE002005B030BD1346002BEED027
:10464000DA68A242F9D1E268DA60E8E7012B1AD011
:10465000022B38D0002B3ED1E38A3BB1274A1368A6
:10466000A34208D1E36813600023E3602046FFF70C
:10467000F5FADFE71346002BF6D0DA68A242F9D14B
:10468000E268DA60F0E71E49002051F82320126842
:104690009AB90133042BF8D121461A48FFF79CFD43
:1046A000237D012B04D10F4ADF211748FEF73AFD85
:1046B0002146012007F03CF8BCE7D56FAC4208BFAB
:1046C000D067D268E4E721460948FFF785FD094B2A
:1046D00001221A70CAE7204605B0BDE83040FFF756
:1046E00021BB00BF10370108043A0108243A010831
:1046F000D8650020DC6500201C660020E0650020F5
:10470000203C0108E46500203D3A010810B504464C
:1047100005F0F4FB64B1237D20460121012B1EBF6F
:10472000638B43F010036383BDE81040FFF740BF85
:104730006FF00F0010BD000010B50846144669B1B7
:104740003AB11189FFF70EFC2046FEF7D3FF002097
:1047500010BD33B9BDE81040FFF7D8BF6FF00F00B0
:10476000F6E71046F4E70000F8B5044680B3866F1C
:104770000023D0F88450777B8367E5B10146324649
:104780000069A8470546E8B9BB0612D5238D42F655
:10479000E062D4F8846093421CBF0133238546B1A4
:1047A0000023214620691A46B0470D3001D16FF031
:1047B0000C052846F8BD01462B4632462846FFF731
:1047C000BBFFDFE70D35F2D06FF00405A667F0E719
:1047D0006FF00F05EDE700002DE9F8431B4D1C4F6E
:1047E0002B781C4E01332B703C684FF000080CB93D
:1047F000BDE8F8832B78A27F9A4224D0A377638BFD
:10480000D90709D543F002032046638302F05CFC1C
:10481000638B23F003036383638B1A0705D523F0AF
:10482000080320466383FFF77DFAA36FD4F80C904A
:104830003BB1204686F80080FFF796FF3378002BC7
:10484000D2D14C46D3E7D4F80C90FAE7ED650020BE
:10485000D8650020DC65002070B505460E4614467C
:1048600005F04CFB1DB32B7D012B19D096B16B8B42
:1048700043F010036B832CB101212846BDE8704042
:10488000FFF796BEA86F08B9002070BDFEF732FF93
:10489000AC67F9E7002CF7D0042B04D8022B04D81E
:1048A0006FF00A00F1E7072BFAD10021E5E76FF07E
:1048B0000F00EAE72DE9F04F9E4D87B0DFF89C929C
:1048C0002B68DFF89C8201339B4E2B6099F80030F7
:1048D000013389F80030D8F800B00027BBF1000F91
:1048E0000CD1964E944F3468DFF87882DFF87892D6
:1048F000002C40F0DE8107B0BDE8F08F9BF814205B
:104900002AB9324640F2C2418D48FEF70BFC9BF8B3
:104910001420012A05D1324640F2C3418948FEF7EE
:1049200001FC9BF814200A2A05D1324640F2C4410A
:104930008548FEF7F7FB99F800209BF81E1091427E
:1049400004D1DBF80C405F46A346C7E79BF8141080
:104950008BF81E2002299BF8422040F09D80032AFC
:1049600040F29C804FF0010A9BF814C0BCF1060F86
:104970000DD1BBF81A20D30609D52A68DBF8201020
:10498000521A282A84BF0AF1010A5FFA8AFA9BF8B0
:10499000094014F008041CD0BCF1040F03D0BCF192
:1049A000070F40F04981DBF820204FF4FA742868A3
:1049B000801ADBF8942002F5242101F6B841B1FBFE
:1049C000F4F1884240F226810AF1010A01245FFADB
:1049D0008AFADBF874206AB12A68DBF82010511AD1
:1049E000BBF9402002EB4202B1EB420F02D3584622
:1049F000FFF7C4FB9BF81420032A40F01F812A68AC
:104A0000DBF82010521A282A03D8BAF1000F00F060
:104A10002B815846DBF890A0FFF7BAFBD8F80020AE
:104A2000002F00F014815A4505D1324640F27151F1
:104A30004648FEF777FBDBF80C20FA6084B1BBF840
:104A400018205B4658460292BBF8162001920BF1E3
:104A500004020092DBF82420DBF8501002F0C8FAC0
:104A6000DBF810205846DBF80C400592FFF7F6F80B
:104A7000DFF8F8B000218BF80010BAF1000F09D070
:104A8000059A6FF00C011046D0479BF80030002BC0
:104A90007FF421AFBB4656E70B2A61E79BF899A04C
:104AA000BAF1000F64D0DBF870202AB132464FF41F
:104AB0009B612748FEF736FBDBF86C202AB93246AB
:104AC00040F2D9412348FEF72DFB9BF89A200B2A90
:104AD0003FF648AF9BF899101F4A0A4412F8011C90
:104AE0009BF898208A420BD3BBF8601089B15846D6
:104AF00002F052F890B9584602F0E6FA30B10DE0F3
:104B00000132D2B28A428BF89820EDD24FF0000ADF
:104B10002AE7584602F0DCFC0028F7D19BF89920E0
:104B20004FF0000A062A8BF898A0EFD801328BF8D4
:104B3000992019E7E865002010370108F06500208A
:104B4000583A0108813A0108AA3A01083D3B010898
:104B5000D63A0108083B0108303C0108ED65002009
:104B6000D8650020923B0108E83B0108DC65002085
:104B7000BBF8302047F6FE718A429CBF0132ABF889
:104B80003020BBF94020BBF930109142BEDB5846C3
:104B900002F082F938B1DBF87020002AB6D1DBF8D8
:104BA0006C20002AB2D09BF81420022A14D0BBF942
:104BB0003C10BBF93E205A4802EBE1029BF8421040
:104BC0000C2928BF0C21415C8A4047F6FF718A42BC
:104BD000A8BF0A46ABF84020BBF860100024BBF821
:104BE0004820BBF832C09142ABF83040ABF848C027
:104BF00028BF11464FEA4C02ABF86A4092B248080F
:104C0000B2EB510F98BF02465846ABF84A2002F06B
:104C100007FCA9E69BF89B10424B03FB0122B2FB69
:104C2000F4F2904208D9584602F02CFC20B99BF8C7
:104C30009B2001328BF89B200024CAE6092A7FF4CE
:104C4000E4AE2A68DBF82010521AF02ADCE65A4556
:104C500005D0324640F275513348FEF763FADBF86F
:104C60000C20C8F80020E9E69BF81C209BF81D10DA
:104C70000132DBF80C40D2B291428BF81C203FF697
:104C800062AE2A4FDBF88C208BF81CA087F800A0BE
:104C90001AB9584602F018FA55E65946DBF81000E2
:104CA00090473A78002A7FF416AE00287FF44BAE86
:104CB000EFE7227D0A2A05D03A4640F2A551404648
:104CC000FEF730FA2A68216A521AF02A11D92046D2
:104CD000FFF75EFABBF1000F0ED13268A24205D099
:104CE0003A4640F2B7514846FEF71CFAE268326095
:104CF0000EE0A346E468FBE53268A24205D13A46DD
:104D000040F2B3510A48FEF70DFAE268CBF80C20E6
:104D1000D4F80CA02046FEF7A1FF5446E8E500BFFA
:104D2000103C0108F8240100683B0108DC65002004
:104D3000C13B010808B5FFF74FFD064A1378013360
:104D4000DBB21370DB0703D5BDE80840FFF7B2BD47
:104D500008BD00BFEC650020094A1388591C11806A
:104D6000084A12681AB1084909888B4204D2074AD6
:104D700012681344187D70475B1ADBB2D05C704731
:104D8000206600202C660020286600202466002073
:104D9000F8B50C46054628B91D4A40F22C411D487D
:104DA000FEF7C0F9EB689889FEF72AFAC20714D417
:104DB000194EE76830682B897968228903440A44D0
:104DC0009A1A002A0FDACB1A002B0ADA091A686835
:104DD00089B22981FEF78AFD03E020460024FFF70F
:104DE00001F92C60F8BDB889FEF70AFAC30707D5A8
:104DF000EB6801209F89FEF703FAEB68384398813E
:104E000027682046FFF7E0F83C46002FD1D1E8E7BD
:104E1000383C01085D3C010818660020F8B50646DC
:104E200028B91C4A40F283711B48FEF77BF91B4BE3
:104E30001F8867B11A4D00232B802B88BB4206D2F6
:104E4000FFF78AFF0128F8D0022801D0C8B9F8BDC1
:104E5000FFF782FF0428FAD12B880133BB42F6DA30
:104E6000FFF77AFF0402FFF777FFA4B244EA0003DA
:104E70009BB25A1EB2F5806F28BF4FF480637386D1
:104E8000DBE7FFF769FF0128E1D92B88023B1844D3
:104E90002880D2E7383C0108843C010830660020B5
:104EA0002066002010B5044628B90F4A40F25A2166
:104EB0000E48FEF737F90E4B187810F0100011D09D
:104EC000638BDB0606D4D4F890301BB16FF00E0173
:104ED0002069984721460748FFF77EF92046FEF7EC
:104EE000BDFE012010BD00BF383C0108A03C0108F8
:104EF00014660020D86500202DE9F84F06461746B5
:104F00000C46DFF8A490DFF8A8A0002C3AD0244B80
:104F10001D68E3685868FEF777F9E268B4F808801E
:104F200083469089FEF76CF9A5EB080310F00300A7
:104F3000A3EB0B0518BF01202D1A002D23DBD4E9AC
:104F400000B0FEF741FDB6F866300546834205D253
:104F50004A4640F264415046FEF7E4F8B6F866006F
:104F6000104A451B20461188A6F8665023890B4439
:104F70001380FFF729F8B6F8663073B1BBF1000F64
:104F80000BD11FB100242046BDE8F88F064A40F23D
:104F90006E410648FEF7C6F8F4E75C46B5E700BF89
:104FA000F46500200C660020383C0108F03C010844
:104FB000C83C01082DE9F84F044628B9374A40F2A9
:104FC00087413748FEF7AEF8237D032B05D8334AD7
:104FD0004FF491613348FEF7A5F8334B334E1B78FD
:104FE000334F13F0100F00F095803268314DB4F854
:104FF00060102B68D4E9150EA0EB020CBCF1000F79
:105000000CDB904203D1AEEB0300002806DB9E458B
:1050100013D129480068C08988420ED92648B4F8BF
:1050200062800068C0891FFA80FCA4F86000E04537
:10503000C4E9152338BFA4F86200626CD01A0028B6
:10504000C0F269813888002839D1B4F860C0714451
:10505000A06D6044884232D1B4F9301000292EDBB3
:105060009A422CD194F84330FF2B1CBF013384F8B3
:10507000433094F84330032B20D9B4F848204FF63E
:10508000FF71638E13449BB29A4288BF0B46A4F80B
:105090004830204601F07CFF11E000BF383C010899
:1050A000103D0108293D0108F86500201866002020
:1050B00032660020F465002024660020E9D0616B90
:1050C00041B3A36B2A689B1A002B23DAB34B89B236
:1050D000B3F800C0B4F93C30ACEB0102C3F3CF002D
:1050E000121A15B213FA82F2B4F93E30002D12B240
:1050F000A3EBA303B8BFA1EB0C01A287BCBF0918A7
:105100000DB22B449BB2E38703EBE203A4F84030DB
:105110000023636338883368626A002800F04483A0
:10512000217D062900F24083D51A012D00F19A81D4
:10513000591E0144891A0029C0F29481DFF8709247
:10514000D9F80480B8F1000F05D1954A40F29A5180
:105150009448FDF7E7FF4FF6FE739D4205D9904A4C
:1051600040F29B519048FDF7DDFFD9F80430ADB215
:105170001B89AB4205D28A4A40F29D518B48FDF70C
:10518000D1FFB9F8083000215B1BA9F80830D9F825
:1051900004301B895B1B9BB2B8F80A20AA42C0F0FE
:1051A000588129464046FEF77DFA636AD9F80C20FB
:1051B000336053603368626A991A0029C0F224820E
:1051C0006FEA030C208D02EB0C01C84200F11C8237
:1051D000934240F01382764DEB68B5F808809889C9
:1051E000FEF70EF810F00300238D18BF0120404495
:1051F00080B28342388040D2EB689889FEF700F88D
:10520000C20710D5EB68B3F80C80404628F47C58F0
:10521000FDF7F6FF00F03E00FDF7F2FFEB6848EA0D
:105220000008A3F80C80238D2B81EB689889FDF78B
:10523000E7FF8307686842BF2B8903F1FF332B81A7
:105240002989FEF753FBEB68B5F808809889FDF7CC
:10525000D7FF10F00300336818BF0120626A404492
:1052600080B238801844238D1344984205D04C4AAC
:1052700040F2D1514F48FDF755FF636F002B00F00E
:105280000081EB689889FDF7BBFFC00700F1F6804D
:10529000D4F8748030683B880344B8F1000F37D0ED
:1052A000D8F80CC0B8F80810DCF804201144591ADA
:1052B000002980F21281D31A002B29DAEB68121A26
:1052C0002A819889FDF79CFF8307686842BF2B8974
:1052D00003F1FF332B812989FEF708FBEB68B5F852
:1052E00008909889FDF78CFF10F00300336818BF11
:1052F0000120484480B238801844D8F80C305B68EC
:10530000984205D0264A40F202612B48FDF70AFF79
:10531000C4F87480B5E0D143D94200F19680216D84
:10532000C91A0029C0F29180618B480709D521F084
:1053300004016183B4F84A10A4F848100021A4F8CD
:105340006A10B4F93C00E18F636401EBE001A4F85A
:1053500040100021A4F84210217D032938D99B1A5E
:10536000B4F84A10B4F848209BB2914226D9618B18
:1053700011F4006F618E14BF0120022011FB00F1B7
:1053800089B2994294BF5018D01883B29A4201D979
:105390004FF6FF73A4F848301AE000BFE86500201C
:1053A000383C0108423D0108523D0108613D0108B9
:1053B000FC650020713D0108A73D0108B4F86A10A2
:1053C0000B449BB299422CD89A422CD9A4F86A304B
:1053D0002046D4E91B21FFF78FFDE16E02462067CE
:1053E0002046FFF789FD226FE066B2FA82F35B097F
:1053F0005B4223860023237708B9A4F868009A4902
:10540000B4F8643009880B44A4F86430638B190540
:105410007FF555AEBAB968B9638B23F40063638333
:105420004DE64FF6FF739B1AA4F86A30638E13445F
:105430009BB2ABE7C3685868FDF7E6FEE36CC01AA1
:105440000028E9DA3BE6D368F5E7204601F00CFED8
:1054500035E6AD1AA8F80830A8F80A10ADB2D8F8A9
:10546000008099E69B1A002BBEBF638B43F00203BA
:1054700063839FE603686367FEF7A6FD606F0028FD
:10548000F8D13A88336813446362238D934205D27E
:10549000764A40F20D617648FDF744FE238D2046A2
:1054A0003A889B1A2385FEF72DFD6B681A891AB17D
:1054B000704A136000236B60EB689889FDF7A0FECB
:1054C000C50704D56C4A137843F020031370DFF846
:1054D0009C81DFF8AC91674F7AE0BCF80C00FDF7D7
:1054E0008FFEC1071BD5EB689889FDF789FE8207FF
:1054F00015D4EB680120B3F80C90FDF781FEEB6842
:1055000049EA0000B5F808909881EB689889FDF7A2
:1055100077FE10F0030018BF012048443880D8F807
:1055200000904046FEF750FDC846B3E633609089D0
:10553000B5F808A0FDF764FE636A10F003009A4412
:1055400018BF01205044B4F828A06062EB68B5F899
:1055500008B09889FDF754FE10F0030018BF012031
:105560005844824505D2424640F231614846FDF733
:10557000D9FDEB68B5F808A09889FDF741FE10F059
:105580000300238D18BF01205044181A208520469F
:10559000FEF7B8FC69680B892BB1386838B3FEF7A1
:1055A00035FA00236B60EB689889FDF729FEC00788
:1055B00009D5314A137843F020031370237D042B5F
:1055C00004BF072323752B6828466367FEF7FCFC9E
:1055D000656F25B1EA68616A53688B42A6D0638B18
:1055E000D90706D523F0010343F0020303E0396035
:1055F000D7E743F001036383BDE8F88F656F45B9D2
:105600001E48FEF7F7FC60672046BDE8F84F01F042
:105610002BBD4FF0000803F1FF3EE868426893425B
:1056200015D116482B8902899A42EDD9FEF7E2FC82
:105630000028E9D0B8F1000F07D0C8F800002946CB
:10564000FFF7A6FBE0E70D46E7E76067F7E7B8F18D
:10565000000F17D1991A00293BDA0848FEF7CAFC57
:105660000028D1D06067EAE70C660020383C0108CA
:10567000E13D01081066002014660020FC65002052
:10568000FF3D0108D8F80C104968AEEB0101002974
:105690001FDB12EB0C0F1CD44948FEF7ABFC07468E
:1056A0000028B1D0D8F80C3031685A68B8F8083002
:1056B0001344CB1A002B07DA891AD8F8040089B2F0
:1056C000A8F80810FEF712F929463846C8F8007005
:1056D000B6E72968A8460029B5D1D31A002B93DA7A
:1056E0008089FDF78DFDC2078ED43548FEF782FC18
:1056F0002860002888D0EB6831685A682B891344E9
:10570000CB1A002B05DA891A686889B22981FEF75D
:10571000EDF83B8832681A44636A9B1A228DD342A3
:105720007FF572AF2B68DB689889FDF769FDC307C9
:1057300012D52B68DB68B3F80C80404628F47C58FF
:10574000FDF75EFD00F03E00FDF75AFD2B6848EACC
:105750000008DB68A3F80C803168238D2A685B1A87
:10576000616A0B4413812B6819895868FEF7BEF8EB
:105770002B681D89DB689889FDF742FD10F0030056
:10578000336818BF0120626A284480B23880184408
:10579000238D134498423FF437AF0A4A40F2FE612A
:1057A0000948FDF7BFFC2FE7991A002905DBDB4309
:1057B0001344228DD3427FF51FAF638B14E700BFE4
:1057C000FC650020383C0108713D01082DE9F04FCF
:1057D000054687B004F092FB25B9674A83216748E4
:1057E000FDF7A0FC6B68664E33606B89132B40F2AB
:1057F000BC80DFF8B481D8F80010D8F8140002F0AB
:10580000BDFC002840F0B180D8F8143003F0F0035C
:10581000E02B00F0AA8008F114030621284600932B
:1058200008F110032A8905F0C9FE0446002840F05B
:105830009C8033689889FDF7E3FC810A01F0FC0144
:10584000132940F292802B898AB28B42C0F08D805E
:10585000A2F114036889DFF854919BB2494F90423A
:10586000DFF84CA1A9F800303C6040D32846AAF8E4
:105870000030FDF717FF3468DFF838B12088FDF7F6
:10588000BFFC20803468404F6088FDF7B9FC608021
:1058900034686068FDF7B8FC60603468CBF80000DD
:1058A000A068FDF7B1FCA06034683860E089FDF7BE
:1058B000A7FC3368E0819889FDF7A2FC334A00F029
:1058C0003F03137083072A8949D1314B1A80314B2A
:1058D0004FF00009284A1C68DFF8DCA0002C6FD1CB
:1058E0002D4BDFF894A01C68DFF8D0905AE12B68AC
:1058F00023B9214AC2212948FDF714FC1421284666
:10590000FDF7D0FE6C89B9F8009028462146AAF828
:105910000040FDF7C7FEA9EB040A28681FFA8AFABF
:105920004389534521D3436851463B60FDF7BAFE96
:105930002B891C446B89A4EB09042C8123B10E4AEA
:10594000DF211748FDF7EEFB2B682A891B899A4255
:1059500091D0094AE0211348FDF7E4FB8BE7531C83
:105960000B499BB29A420B80B1D9284607B0BDE8DB
:10597000F04FFDF7BFBE00BF383C0108243E0108D0
:10598000246600202C660020F4650020F8650020C5
:1059900032660020D8650020F06500203C3E0108FA
:1059A0004C3E0108583E0108946B002030660020F0
:1059B00028660020186600209E3E0108443F01082A
:1059C000237D23B9FB21A548FDF7ACFBA44A237D29
:1059D0000A2B04D1FC215046FDF7A4FBA04A237DED
:1059E000012B04D1FD219F48FDF79CFB9C4A217AA5
:1059F00039B1D8F8043093F830300133DBB2994232
:105A000074D13368208B198888426FD1E18A5B8812
:105A100099426BD16168D8F81030994266D12168FB
:105A2000D8F81430994261D1E368A34240F054841D
:105A30008B4A40F20D118C48FDF774FBB9F1000F51
:105A400006D0E368C9F80C30884B1A681C60E26025
:105A5000E368A34205D1824A40F215118448FDF75C
:105A600061FBDFF82C9200232A89DFF828A2A9F82D
:105A700008203268DFF82082C9F80C207D4AC9F876
:105A80000030CAF8003088F8003013807A4BC9F82B
:105A900004501B781B0703D56B7B43F001036B732A
:105AA000A36F002B00F057812046FEF75DFE0D30FE
:105AB00008D0A36F002B00F04E81704B1B88002B89
:105AC00000F04981638D13B9204601F0CDFA00241E
:105AD0006B4BD9F804001C60CAF8004018B1FDF700
